{
  "_format": "hh-sol-artifact-1",
  "contractName": "ShapeAreaCalculator",
  "sourceName": "contracts/ShapeAreaCalculator.sol",
  "abi": [
    {
      "inputs": [
        {
          "internalType": "uint256",
          "name": "length",
          "type": "uint256"
        },
        {
          "internalType": "uint256",
          "name": "width",
          "type": "uint256"
        }
      ],
      "name": "calculateRectangleArea",
      "outputs": [
        {
          "internalType": "uint256",
          "name": "",
          "type": "uint256"
        }
      ],
      "stateMutability": "pure",
      "type": "function"
    },
    {
      "inputs": [
        {
          "internalType": "uint256",
          "name": "side",
          "type": "uint256"
        }
      ],
      "name": "calculateSquareArea",
      "outputs": [
        {
          "internalType": "uint256",
          "name": "",
          "type": "uint256"
        }
      ],
      "stateMutability": "pure",
      "type": "function"
    },
    {
      "inputs": [
        {
          "internalType": "uint256",
          "name": "base",
          "type": "uint256"
        },
        {
          "internalType": "uint256",
          "name": "height",
          "type": "uint256"
        }
      ],
      "name": "calculateTriangleArea",
      "outputs": [
        {
          "internalType": "uint256",
          "name": "",
          "type": "uint256"
        }
      ],
      "stateMutability": "pure",
      "type": "function"
    }
  ],
  "bytecode": "0x608060405234801561001057600080fd5b50610186806100206000396000f3fe608060405234801561001057600080fd5b50600436106100415760003560e01c806312c0f98214610046578063ab65aa341461006b578063bda1ea671461007e575b600080fd5b6100596100543660046100ce565b610091565b60405190815260200160405180910390f35b6100596100793660046100e7565b6100a3565b61005961008c3660046100e7565b6100b6565b600061009d8280610109565b92915050565b60006100af8284610109565b9392505050565b600060026100c48385610109565b6100af919061012e565b6000602082840312156100e057600080fd5b5035919050565b600080604083850312156100fa57600080fd5b50508035926020909101359150565b808202811582820484141761009d57634e487b7160e01b600052601160045260246000fd5b60008261014b57634e487b7160e01b600052601260045260246000fd5b50049056fea26469706673582212200fddd336d12853c3e83f468f61895b3869c59282f2bf2ec6c1f6b697846bfb9764736f6c63430008180033",
  "linkReferences": {},
  "deployedLinkReferences": {}
}